:100000000C942A000C9447000C9447000C94470071
:100010000C9447000C9447000C9447000C94C401C6
:100020000C9447000C9447000C9447000C94470034
:100030000C9447000C9447000C9447000C94470024
:100040000C9447000C9447000C9447000C94470014
:100050000C94470011241FBECFE5D8E0DEBFCDBF12
:1000600010E0A0E6B0E0ECE1F9E002C005900D92EE
:10007000A23AB107D9F711E0A2EAB0E001C01D929F
:10008000A832B107E1F70E9400010C948C040C9493
:1000900000008091B2009091B3000E943B01882340
:1000A00041F081E08093BC001092C70080E690E0B0
:1000B00007C01092BC0081E08093C7008FE690E0FB
:1000C0000E943C040895E091CA00F091CB00019099
:1000D000F081E02D8281938166810E94A2020895C1
:1000E000E091A500F091A6000190F081E02D8281C1
:1000F000938166810E94A20208951092B40010922A
:10010000B5001092B6001092B70021E02093BC0019
:100110008CE291E0A0E0B0E08093B8009093B90049
:10012000A093BA00B093BB0080E790E09093BE002C
:100130008093BD001092BF001092C0001092C100C9
:100140001092C2002093C70088E592E0A0E0B0E0E2
:100150008093C3009093C400A093C500B093C600E1
:1001600083E690E09093C9008093C8001092A700A6
:100170001092A8001092A9001092AA002093AF003C
:1001800082E390E0A0E0B0E08093AB009093AC00FD
:10019000A093AD00B093AE0089E490E09093B100DD
:1001A0008093B00087E390E068E370E046E350E0BE
:1001B00020E00E94AE020E941A019093B300809347
:1001C000B20087E390E068E370E046E350E023E0AC
:1001D0000E94AE020E944C019093A6008093A5005D
:1001E00087E390E068E370E046E350E027E00E9498
:1001F000AE020E944C019093CB008093CA000895F8
:100200000E945F020E947D000E947B0184EB90E0CF
:100210000E949A0187EA90E00E949A018FEB90E099
:100220000E949A01FFCFFC018081918161E00E94D0
:10023000D4020895CF92DF92FF920F931F93CF9332
:10024000DF938C0182E090E00E940903F92EC82E12
:10025000E6016E01D92EE60119830883C6010E94CA
:1002600013018C2D9F2DDF91CF911F910F91FF9046
:10027000DF90CF900895FC01808191810E94F80267
:1002800091E0811190E0892F0895FC018081918196
:1002900060E00E94D4020895CF92DF92FF920F9304
:1002A0001F93CF93DF938C0182E090E00E940903BB
:1002B000F92EC82EE6016E01D92EE60119830883B6
:1002C000C6010E9445018C2D9F2DDF91CF911F917A
:1002D0000F91FF90DF90CF900895FC018081918174
:1002E00061E00E94EB020895FC018081918160E051
:1002F0000E94EB02089588E290E00E940903809337
:100300001C0190931D018EE490E061E00E94720256
:100310008EE490E063E00E94720289E590E064E080
:100320000E9472021DBC1CBC82EE94E09BBD8ABD83
:1003300078940895CF93DF932091A400233108F59A
:1003400030E0220F331FE0911C01F0911D01E20FFC
:10035000F31F918380832091A400E22FF0E0EE0F41
:10036000FF1FEE0FFF1FE453FF4FEC0188819981BF
:10037000AA81BB8180839183A283B3832F5F209363
:10038000A400DF91CF9108951F920F920FB60F92A4
:100390001124DF92EF92FF920F931F932F933F93BD
:1003A0004F935F936F937F938F939F93AF93BF937D
:1003B000CF93DF93EF93FF93CCECD0E000E010E01D
:1003C0004DC088819981AA81BB81B7FD07C00A977A
:1003D000A109B10988839983AA83BB837801EE0CB4
:1003E000FF1CE0911C01F0911D01EE0DFF1D01901D
:1003F000F081E02D8085882379F021E030E088814C
:100400009981AA81BB81181619061A061B0614F4D5
:1004100020E030E0C90102C080E090E0D82E8823BF
:1004200021F00184F285E02D0995E0911C01F09105
:100430001D01EE0DFF1D0190F081E02D80858823C8
:1004400011F0DD2041F084819581A681B7818883F8
:100450009983AA83BB830F5F1F4F24968091A400CA
:1004600090E0081719070CF4ACCFFF91EF91DF91E2
:10047000CF91BF91AF919F918F917F916F915F913C
:100480004F913F912F911F910F91FF90EF90DF902F
:100490000F900FBE0F901F9018951F93182F8A3042
:1004A00019F48DE00E944D025D9BFECF1CB980E0E7
:1004B00090E01F9108955F9BFECF8CB108958FE768
:1004C00090E090932501809324018DE890E0909333
:1004D00023018093220182E08BB98CE089B988E105
:1004E0008AB90895FC01208181E090E002C0880F64
:1004F000991F6A95E2F7282B20830895FC0120813B
:1005000081E090E002C0880F991F6A95E2F780951C
:10051000822380830895FC01208181E090E002C065
:10052000880F991F6A95E2F782230895FC012081C4
:1005300081E090E002C0880F991F6A95E2F720954C
:1005400082230895FC01208181E090E002C0880FA1
:10055000991F6A95E2F7282720830895CF92DF92AA
:10056000EF92FF920F931F93DF93CF930F92CDB72C
:10057000DEB77C016B018A0187E090E029830E944D
:100580000903FC01F182E082D382C28215830483D5
:10059000298126830F90CF91DF911F910F91FF90BA
:1005A000EF90DF90CF900895CF93DF93EC01662317
:1005B00051F0613069F4888199816E810E947E02D8
:1005C0008A819B8102C0888199816E810E9472021A
:1005D000DF91CF910895FC0182819381662321F4FC
:1005E00066810E947E02089566810E9472020895CB
:1005F000FC01A481B5819C9121E030E0068002C01D
:10060000220F331F0A94E2F7922381E009F480E07D
:100610000895CF93DF938230910510F482E090E04B
:10062000E0912001F091210140E050E020E030E035
:1006300026C06081718168177907E0F06817790733
:1006400081F4828193812115310531F0D90113960E
:100650009C938E9312972BC090932101809320013D
:1006600026C04115510519F06417750718F4AB0140
:10067000E901DF019F0172816381E72FF62F309737
:10068000C1F64115510501F1481B590B4430510584
:1006900080F412968D919C911397209719F09B836B
:1006A0008A8304C09093210180932001FD0132963A
:1006B00046C0FD01E40FF51F8193919342505040D5
:1006C00011965C934E933BC020911E0130911F0107
:1006D0002115310541F420919D0030919E00309309
:1006E0001F0120931E0120919F003091A000211531
:1006F000310541F42DB73EB740919B0050919C00CD
:10070000241B350BE0911E01F0911F01E217F30746
:10071000A0F42E1B3F0B2817390778F0AC014E5F71
:100720005F4F2417350748F04E0F5F1F50931F018E
:1007300040931E018193919302C0E0E0F0E0CF016D
:10074000DF91CF910895CF93DF93009709F491C083
:10075000FC01329713821282609120017091210175
:100760006115710581F420813181280F391F809135
:100770001E0190911F018217930799F5F0931F01B5
:10078000E0931E0176C0DB0180E090E002C0CD0165
:10079000D901AE17BF0748F412962D913C911397DB
:1007A00021153105A1F7CD0121C0B383A283EF014B
:1007B000499159919E01240F351FA217B30779F46F
:1007C0002D913C911197240F351F2E5F3F4F3183A0
:1007D000208312962D913C911397338322830097A7
:1007E00029F4F0932101E093200143C0DC0113962A
:1007F000FC93EE9312974D915D91A40FB51FEA17EC
:10080000FB0769F420813181240F351F2E5F3F4F94
:10081000EC0139832883228133813B832A83E0E002
:10082000F0E002C0FB01BC01DB0112968D919C91AE
:1008300013970097B9F79B012E5F3F4F8D919C91C5
:100840001197820F931F40911E0150911F0148176D
:10085000590779F4309729F4109221011092200160
:1008600002C0138212822250304030931F01209325
:100870001E01DF91CF910895EF92FF920F931F9386
:10088000CF93DF938C01E0912401F09125018381C6
:1008900081FF1FC0C0E0D0E00AC0DB011896ED91D7
:1008A000FC9119970995009711F0CFEFDFEFF80150
:1008B00081918F016091240170912501882369F74E
:1008C000DB011896ED91FC9119978AE00995009744
:1008D00011F0CFEFDFEFCE01CDB7DEB7E6E00C943D
:1008E0007D042A88398848885F846E847D848C845E
:1008F0009B84AA84B984C884DF80EE80FD800C814B
:100900001B81AA81B981CE0FD11D0FB6F894DEBF2D
:0C0910000FBECDBFED010895F894FFCF9D
:10091C00427574746F6E20707265737365640042F7
:10092C007574746F6E2072656C656173656400001C
:10093C00000002000000004D02000000000000005A
:10094C00010000000000005B0200002000280100F4
:02095C00000099
:00000001FF
