S00C00004C6162322E73726563D7
S11300000C942A000C9447000C9447000C9447006D
S11300100C9447000C9447000C9447000C94470040
S11300200C9447000C9447000C9447000C94470030
S11300300C9447000C9447000C9447000C94470020
S11300400C9447000C9447000C9447000C94470010
S11300500C94470011241FBECFE5D8E0DEBFCDBF0E
S113006010E0A0E6B0E0E2EDF0E002C005900D92F1
S1130070A036B107D9F720E0A0E6B0E001C01D9298
S1130080A036B207E1F70E9455000C9467000C9467
S11300900000A598089583B3807290E00895D09AE3
S11300A00895D89A0895D89808950E9449000E9406
S11300B04F0080EF90E00197F1F70E944B00892BED
S11300C019F00E945100F5CF0E945300F2CFF8942A
S10500D0FFCF5C
S9030000FC
