:100000000C942A000C9447000C9447000C94470071
:100010000C9447000C9447000C9447000C94470044
:100020000C9447000C9447000C9447000C94470034
:100030000C9447000C9447000C9447000C94470024
:100040000C9447000C9447000C9447000C94470014
:100050000C94470011241FBECFE5D8E0DEBFCDBF12
:1000600010E0A0E6B0E0E8EFF4E002C005900D92E9
:10007000A43DB107D9F720E0A4EDB0E001C01D9286
:10008000A83DB207E1F70E94E3010C947A020C94B8
:10009000000080E487B987E886B90895806487B94D
:1000A00083E08A95F1F70000369A86B186B186B969
:1000B00084B195B10895FC01A381B4818C9190E045
:1000C000008002C0959587950A94E2F781700895A3
:1000D000DC011196ED91FC911297408121E030E016
:1000E000B9010C9002C0660F771F0A94E2F7CB01AA
:1000F000842B80830895FC01608352834183348381
:100100002383089587B3807F87BB969A93980000D6
:10011000C49A000086B38295807F0000C4980000D6
:10012000C49A000096B30000C4980000882384F3AA
:10013000969887B38F6087BB0895282F22952F70DC
:100140008F70611102C0939801C0939A0000C49A05
:1001500098B3907F922B98BB0000C4980000C49A7B
:1001600098B3907F892B88BB0000C49800000E9440
:10017000820008950F931F93CF93DF93C82F87EAD0
:1001800091E60197F1F700C0000088B3807F88BB3B
:10019000C4989698939887B38F6087BBBC9A8B9AC4
:1001A0008E9A0000C49AC19A0000C498000094E698
:1001B0009A95F1F760E088E20E949D0060E08C2F44
:1001C00088600E949D0060E08C2F8C600E949D00E2
:1001D00060E080E40E949D00C0E6D0E000EA10E00C
:1001E00061E089910E949D00C017D107C9F760E0C6
:1001F00081E00E949D00DF91CF911F910F910895A2
:100200000F931F93CF93DF938C01FC018081882390
:1002100009F18532A9F4E8012196F8018181805322
:10022000883020F461E00E949D000EC061E085E20C
:100230000E949D0061E0F80181810E949D0004C040
:1002400061E00E949D00E8018E010F5F1F4F8981D0
:100250008111DFCFDF91CF911F910F9108958431EC
:1002600078F4623031F0633031F0613029F4806429
:1002700003C08C5E01C08C5A60E080680E949D00C3
:1002800008950E944900089580E090E00E944E0089
:1002900044EF51E0849F9001859F300D949F300D75
:1002A0001124332314F421503C4F832F85958595D9
:1002B000932F990F990B08959C01220F331F220F42
:1002C000331F220F331F820F931F65E070E00E94DF
:1002D0001202CB01809608958F5E9E4F089523E30E
:1002E00030E044E350E060E070E086ED90E00E9492
:1002F0007B0086ED90E00E94680023E330E044E359
:1003000050E064E070E084ED90E00E947B0084EDBA
:1003100090E00E94680008950F931F93CF93DF939E
:100320008C01EB01CA014AE050E00E943A0260E011
:1003300080E00E942F01C8010E94000161E080E07E
:100340000E942F0180EA90E00E94000161E080E0BD
:100350000E942F01CE010E940001DF91CF911F91D9
:100360000F9108950F931F93CF93DF93EC018B01AF
:1003700086ED90E00E945B00892B51F0C8010E943D
:100380006C01AC01BE0185EA90E00E948C0116C0B0
:1003900084ED90E00E945B00892B51F0C8010E941F
:1003A0005C01AC01BE0183EB90E00E948C0106C0B1
:1003B000A801BE0185EC90E00E948C01DF91CF91F5
:1003C0001F910F910895CF93DF9300D01F92CDB767
:1003D000DEB70E946F010E9409020E94410180E085
:1003E0000E94BA00C8010E9444018C014AE050E01A
:1003F000BE016F5F7F4F0E943A0283ED90E3019749
:10040000F1F700C00000B801CE0101960E94B201D0
:10041000E9CF1BB888E18AB986E880BD10BC83E3C8
:1004200089B9089597FB072E16F4009407D077FD3D
:1004300009D00E94260207FC05D03EF490958195D4
:100440009F4F0895709561957F4F0895AA1BBB1B20
:1004500051E107C0AA1FBB1FA617B70710F0A61BC4
:10046000B70B881F991F5A95A9F780959095BC01E5
:10047000CD0108954532510520F4423010F00C941E
:100480004502FB011082CB010895BB274A3031F4AD
:10049000992322F4BDE2909581959F4F0C945102CF
:1004A000BB27FB015527AA27880F991FAA1FA4174E
:1004B00010F0A41B83955051B9F7A05DAA3308F042
:1004C000A95DA193009779F7B111B1931192CB0176
:1004D0000C946A02DC01FC01672F71917723E1F72C
:1004E000329704C07C916D9370836291AE17BF0701
:0804F000C8F30895F894FFCF52
:1004F8000000040E0400000000040E1F0E0400009B
:10050800040404041F0E04000A15110A0400000064
:100518000A1F1F0E040000000C12120C000000003D
:10052800040E1F0404040400010214080000000063
:100538002020202000542530204B656C76696E20E1
:100548003D20005425302046616872656E686569F3
:1005580074203D20005425302043656C7369757301
:04056800203D200012
:00000001FF
