:100000000C942A000C9447000C9447000C94470071
:100010000C9447000C9447000C9447000C94470044
:100020000C9447000C9447000C9447000C94470034
:100030000C9447000C9447000C9447000C94470024
:100040000C9447000C9447000C9447000C94470014
:100050000C94470011241FBECFE5D8E0DEBFCDBF12
:1000600010E0A0E6B0E0EEEAFFE002C005900D92DD
:10007000A839B107D9F710E0A8E9B0E001C01D9296
:10008000A43AB107E1F70E94AB000C94D5070C9499
:100090000000EF92FF920F931F93CF93DF9387E3BC
:1000A00090E068E370E046E350E023E00E94B00196
:1000B000EC0187E390E068E370E046E350E022E083
:1000C0000E94B0018C0187E390E068E370E046E3B2
:1000D00050E021E00E94B001AC01CE01B8010E94C5
:1000E0000B026BED72E00E946F027C0181E390E0F5
:1000F00062E370E040E350E027E00E94B001EC01D1
:1001000081E390E062E370E040E350E025E00E948C
:10011000B0018C0181E390E062E370E040E350E0E5
:1001200026E00E94B001AC01CE01B8010E940B0292
:100130006AEF72E00E946F02BC01C7010E94FC00DE
:100140009093990080939800DF91CF911F910F9128
:10015000FF90EF900895CF93DF930E9430030E94A9
:100160004900C0E6D0E000D0EDB7FEB7D283C1832E
:100170000E9402050F900F9080919E0090919F0029
:100180000E94C0048C3689F18D3628F4813651F0F6
:10019000843649F715C08337D1F0873751F080375F
:1001A00011F71CC080919800909199000E942C0139
:1001B000DACF80919800909199000E949D01D3CF51
:1001C00080919800909199000E944001CCCF80913D
:1001D0009800909199000E948A01C5CF8091980063
:1001E000909199000E941001BECF8091980090914B
:1001F00099000E941E01B7CF0F931F93CF93DF93F7
:10020000EC018B0184E090E00E948D03FC01D1831E
:10021000C08313830283DF91CF911F910F910895C3
:10022000CF93DF93EC01888199810E94D8028A8163
:100230009B810E94D802DF91CF910895CF93DF93E5
:10024000EC01888199810E9492028A819B810E949F
:100250009202DF91CF910895CF93DF93EC018881D3
:100260009981FC01628161500E94B9028A819B815F
:10027000FC0162816F5F0E94B902DF91CF91089506
:10028000CF93DF93EC018A819B81FC0162816150F5
:100290000E94B90288819981FC0162816F5F0E948E
:1002A000B902DF91CF910895CF93DF93EC0188815C
:1002B00099810E949A028A819B810E949A02DF9111
:1002C000CF9108950F931F93CF93DF938C01DC019F
:1002D0008D919C9111971296ED91FC91139722812B
:1002E000FC013281C32FD0E0C20FD11DD595C79537
:1002F000C60FD11D6C2F0E94B902D80112968D91A4
:100300009C9113976C2F0E94B902DF91CF911F919E
:100310000F910895CF93DF93EC0161E00E94620199
:100320008881998160E00E94C1028A819B8160E09E
:100330000E94C102DF91CF910895CF93DF93EC012A
:1003400061E00E9462018881998161E00E94C1029E
:100350008A819B8161E00E94C102DF91CF91089563
:10036000CF92DF92EF92FF920F931F93DF93CF9381
:100370000F92CDB7DEB77C016B018A0187E090E078
:1003800029830E948D03FC01F182E082D382C28224
:1003900015830483298126830F90CF91DF911F91CC
:1003A0000F91FF90EF90DF90CF900895CF93DF9360
:1003B000EC01662351F0613069F4888199816E8186
:1003C0000E944D038A819B8102C0888199816E8140
:1003D0000E944103DF91CF910895FC0182819381B6
:1003E000662321F466810E944D03089566810E9470
:1003F00041030895FC01A481B5819C9121E030E086
:10040000068002C0220F331F0A94E2F7922381E094
:1004100009F480E00895EF92FF920F931F93CF931A
:10042000DF938C01EB017A0186E090E00E948D035E
:10043000FC0111830083D383C283F582E482DF91C0
:10044000CF911F910F91FF90EF900895CF93DF937D
:10045000EC018881998160E00E94D6018A819B81AC
:1004600060E00E94D6018C819D8160E00E94D601EF
:10047000DF91CF910895FC018081918161E00E941C
:10048000ED010895FC018081918160E00E94ED0101
:1004900008951F93CF93DF93EC01633050F470E025
:1004A000FB01E059FF4F20816D587F4FFB01108108
:1004B00002C010E020E08A819B8161E0222309F4E0
:1004C00060E00E94ED018C819D8161E0112309F4BF
:1004D00060E00E94ED01DF91CF911F910895DF92BE
:1004E000EF92FF920F931F93CF93DF93EC017B0169
:1004F00085E090E00E948D03D92E082F192FF80176
:10050000D183C0831282F482E382CE010E9426024C
:10051000802F9D2DDF91CF911F910F91FF90EF9034
:10052000DF900895DC011396ED91FC91149780E023
:1005300009950895CF93DF93EC018881998162E05A
:100540000E944902EB81FC818FEF0995DF91CF91E9
:100550000895FC0192818FEF989FC001112464E6F9
:1005600070E00E9466030380F481E02D862F0995D8
:100570000895653608F064E6FC0162830E94A902D2
:100580000895CF93DF93EC01662319F0613051F4A5
:1005900004C08881998160E003C08881998161E00D
:1005A0000E944902CE010E94A902DF91CF910895D5
:1005B0000E94A90208951F93182F83E590E066E03A
:1005C0000E94410383E590E063E00E94410383E5DC
:1005D00090E065E00E94410383E590E062E00E94C4
:1005E000410387E390E063E00E9441031CBF12BE19
:1005F0001F9108951F93182F85E490E066E00E94F4
:10060000410385E490E063E00E94410385E490E0CB
:1006100065E00E94410385E490E061E00E944103AF
:1006200085E490E062E00E94410381E390E067E0AE
:100630000E94410313BD14BC1F9108951F93182FEE
:100640008A3019F48DE00E941E035D9BFECF1CB919
:1006500080E090E01F9108955F9BFECF8CB10895DC
:1006600086E790E09093A1008093A00084E890E05A
:1006700090939F0080939E0083E389B988E18AB9B3
:100680000895FC01208181E090E002C0880F991F4D
:100690006A95E2F7282B20830895FC01208181E0F0
:1006A00090E002C0880F991F6A95E2F78095822337
:1006B00080830895FC01208181E090E002C0880FD2
:1006C000991F6A95E2F728272083089597FB092E42
:1006D00007260AD077FD04D00CD006D000201AF4EB
:1006E000709561957F4F0895F6F7909581959F4F8E
:1006F0000895AA1BBB1B51E107C0AA1FBB1FA61769
:10070000B70710F0A61BB70B881F991F5A95A9F7BA
:1007100080959095BC01CD010895CF93DF938230F1
:10072000910510F482E090E0E0919C00F0919D0032
:1007300040E050E020E030E026C060817181681721
:100740007907E0F06817790781F482819381211598
:10075000310531F0D90113969C938E9312972BC0DB
:1007600090939D0080939C0026C04115510519F07F
:100770006417750718F4AB01E901DF019F0172816D
:100780006381E72FF62F3097C1F64115510501F12E
:10079000481B590B4430510580F412968D919C9161
:1007A0001397209719F09B838A8304C090939D0030
:1007B00080939C00FD01329646C0FD01E40FF51FB9
:1007C000819391934250504011965C934E933BC05D
:1007D00020919A0030919B002115310541F4209120
:1007E00094003091950030939B0020939A002091C3
:1007F0009600309197002115310541F42DB73EB791
:100800004091920050919300241B350BE0919A0087
:10081000F0919B00E217F307A0F42E1B3F0B281763
:10082000390778F0AC014E5F5F4F2417350748F069
:100830004E0F5F1F50939B0040939A0081939193BA
:1008400002C0E0E0F0E0CF01DF91CF910895CF93B7
:10085000DF93009709F491C0FC0132971382128252
:1008600060919C0070919D006115710581F420815B
:100870003181280F391F80919A0090919B00821737
:10088000930799F5F0939B00E0939A0076C0DB0103
:1008900080E090E002C0CD01D901AE17BF0748F457
:1008A00012962D913C91139721153105A1F7CD0199
:1008B00021C0B383A283EF01499159919E01240F76
:1008C000351FA217B30779F42D913C911197240F8E
:1008D000351F2E5F3F4F3183208312962D913C911F
:1008E000139733832283009729F4F0939D00E093BC
:1008F0009C0043C0DC011396FC93EE9312974D913C
:100900005D91A40FB51FEA17FB0769F420813181BF
:10091000240F351F2E5F3F4FEC013983288322813E
:1009200033813B832A83E0E0F0E002C0FB01BC019D
:10093000DB0112968D919C9113970097B9F79B015B
:100940002E5F3F4F8D919C911197820F931F409185
:100950009A0050919B004817590779F4309729F471
:1009600010929D0010929C0002C0138212822250AD
:10097000304030939B0020939A00DF91CF910895EF
:10098000CF93DF93EC013B8130FF36C036FF09C0C7
:100990003F7B3B838E819F8101969F838E832A813B
:1009A00029C032FF0FC0E881F9818081992787FD36
:1009B0009095009719F430623B831EC03196F983FD
:1009C000E88311C0EA85FB85CE01099597FF0BC02E
:1009D0002B813FEF8F3F930711F480E101C080E24C
:1009E000822B8B8309C02E813F812F5F3F4F3F8336
:1009F0002E83282F30E002C02FEF3FEFC901DF9197
:100A0000CF910895A0E0B0E0E8E0F5E00C94AE07E7
:100A1000FE013596619171918091A0009091A100A5
:100A2000AF010E9417052096E2E00C94CA07ACE0E3
:100A3000B0E0EDE1F5E00C949E076C011B018A012A
:100A4000FC0117821682838181FFD1C12E01089497
:100A5000411C511CF6019381F10193FD859193FF97
:100A600081911F01882309F4BEC1853239F493FDB9
:100A7000859193FF81911F01853229F490E0B601A1
:100A80000E941407E7CFEE24FF2420E02032B0F4C8
:100A90008B3269F08C3228F4803251F0833271F459
:100AA0000BC08D3239F0803349F421602CC02260B4
:100AB000246029C0286027C0206125C027FD2CC0E4
:100AC000382F30533A3098F426FF08C08E2D880F07
:100AD000E82EEE0CEE0CE80EE30E15C08F2D880FFD
:100AE000F82EFF0CFF0CF80EF30E20620CC08E32B5
:100AF00021F426FD78C1206406C08C3611F42068EC
:100B000002C0883649F4F10193FD859193FF8191EC
:100B10001F01882309F0BACF982F9554933018F00D
:100B20009052933028F40C5F1F4FFFE3F9830DC000
:100B3000833631F0833771F0833509F060C022C00D
:100B4000F801808189830E5F1F4F420171E0A72E5B
:100B5000B12C16C062E0662E712C600E711EF80179
:100B60008080918026FF03C06E2D70E002C06FEF81
:100B70007FEFC4012C870E9409075C0183012C854B
:100B80002F7717C052E0652E712C600E711EF80190
:100B90008080918026FF03C06E2D70E002C06FEF51
:100BA0007FEFC4012C870E94FE065C012C85206823
:100BB000830123FD20C008C080E290E0B6012C87AD
:100BC0000E941407FA942C858F2D90E0A816B90680
:100BD00098F311C0F40127FD859127FF81914F0102
:100BE00090E0B6012C870E9414072C85F110FA942E
:100BF0000894A108B108A114B10461F7F1C08436CA
:100C000011F0893649F527FF08C0F801608171812C
:100C1000828193810C5F1F4F09C0F801608171814F
:100C2000882777FD8095982F0E5F1F4F4FE6B42ED3
:100C3000B22297FF09C090958095709561957F4F7E
:100C40008F4F9F4FF0E8BF2AA2012AE030E00E94B8
:100C50004007782E741845C0853731F43FEEB32E27
:100C6000B2222AE030E025C099EFB92EB2228F36A9
:100C7000C1F0803720F4883509F0B5C00DC0803749
:100C800021F0883709F0AFC002C020E1B22AB4FEDB
:100C90000BC084E0B82A08C0B4FE09C0E6E0BE2A52
:100CA00006C028E030E005C020E130E002C020E1CD
:100CB00032E0B7FE08C0F8016081718182819381C2
:100CC0000C5F1F4F07C0F8016081718180E090E0E8
:100CD0000E5F1F4FA2010E944007782E7418FFE795
:100CE000BF22B6FE0BC02EEFB2227E1438F4B4FE43
:100CF00007C0B2FC05C08FEEB82202C0A72C01C00D
:100D0000AE2C8B2D90E0B4FE0DC0FE01E70DF11D61
:100D10002081203319F4E9EEBE2209C0A394B2FE6B
:100D200006C004C086789070009709F0A3948B2CBD
:100D30009924B3FC14C0B0FE0FC0AF1428F4E72C04
:100D4000EF0CEA18AF2C08C0E72C06C080E290E058
:100D5000B6010E941407A394AF14C0F304C0AF14EB
:100D600010F4FA1801C0FF2484FE0FC080E390E065
:100D7000B6010E94140782FE1FC081FE03C088E5F1
:100D800090E010C088E790E00DC0C40186789070B4
:100D9000009791F081FC02C080E201C08BE2B7FCB9
:100DA0008DE290E0B6010E94140706C080E390E057
:100DB000B6010E941407EA947E14C0F37A94F201FB
:100DC000E70DF11D808190E0B6010E9414077720A5
:100DD000A9F706C080E290E0B6010E941407FA94D9
:100DE000FF20C1F737CEF6012681378102C02FEFF1
:100DF0003FEFC9012C96E2E10C94BA07FC01059083
:100E0000615070400110D8F7809590958E0F9F1F0C
:100E10000895FC016150704001900110D8F7809551
:100E200090958E0F9F1F08950F931F93CF93DF937D
:100E30008C01EB018B8181FF1BC082FF0DC02E81D5
:100E40003F818C819D812817390764F4E881F981FD
:100E50000193F983E88306C0E885F985802F099519
:100E6000009731F48E819F8101969F838E8302C00B
:100E70000FEF1FEFC801DF91CF911F910F910895E0
:100E8000FA01AA27283051F1203181F1E8946F93BB
:100E90006E7F6E5F7F4F8F4F9F4FAF4FB1E03ED061
:100EA000B4E03CD0670F781F891F9A1FA11D680FFF
:100EB000791F8A1F911DA11D6A0F711D811D911D32
:100EC000A11D20D009F468943F912AE0269F1124A7
:100ED0003019305D3193DEF6CF010895462F47700B
:100EE000405D4193B3E00FD0C9F7F6CF462F4F7066
:100EF000405D4A3318F0495D31FD4052419302D0C4
:100F0000A9F7EACFB4E0A695979587957795679569
:100F1000BA95C9F700976105710508959B01AC0169
:100F20000A2E06945795479537952795BA95C9F790
:100F3000620F731F841F951FA01D08952F923F926B
:100F40004F925F926F927F928F929F92AF92BF92D9
:100F5000CF92DF92EF92FF920F931F93CF93DF9385
:100F6000CDB7DEB7CA1BDB0B0FB6F894DEBF0FBEE2
:100F7000CDBF09942A88398848885F846E847D842F
:100F80008C849B84AA84B984C884DF80EE80FD8031
:100F90000C811B81AA81B981CE0FD11D0FB6F894A7
:0E0FA000DEBF0FBECDBFED010895F894FFCF68
:100FAE000A456E74657220636F6D6D616E643A00F2
:100FBE0001000100010100000002000000001E03FC
:100FCE0000000000000000010000000000002C03E3
:080FDE0000002000A400000047
:00000001FF
